:100000000C9437000C945F000C945F000C945F001C
:100010000C945F000C945F000C945F000C945F00E4
:100020000C945F000C945F000C945F000C945F00D4
:100030000C945F000C945F000C945F000C945F00C4
:100040000C94D4060C945F000C9483050C945F0010
:100050000C945F000C945F000C945F000C945F00A4
:100060000C945F000C945F003E04FC043C061124D9
:100070001FBECFEFD4E0DEBFCDBF11E0A0E0B1E006
:10008000ECE2F0E102C005900D92AA32B107D9F777
:1000900011E0AAE2B1E001C01D92A53DB107E1F770
:1000A00010E0CEE6D0E004C02297FE010E941008C6
:1000B000C836D107C9F70E947C050C9414080C942B
:1000C0000000089508952C98289880912B01482FBE
:1000D00050E027E030E05C98CA01022E02C09595FE
:1000E00087950A94E2F780FF02C0289A01C02898F9
:1000F0005C9A215030408FEF2F3F380761F72C9AE0
:100100000895249A579A549A209A10922B010E948B
:1001100063005F9808950F931F93FC01162F042F1F
:10012000608341838AE291E00E948100123009F1EC
:10013000133020F4113009F050C006C0133061F1C3
:10014000143009F04AC039C080912B01837F80931D
:100150002B018AE291E00E9463008091B0008368E5
:100160008093B00007700093B1001092B300239AFF
:1001700034C080912B018D7E80932B018AE291E027
:100180000E9463008091B00083628093B00007708A
:100190000093B100539A21C080912B018F758093F9
:1001A0002B018AE291E00E94630084B5836284BDE2
:1001B000077005BD18BC559A10C080912B018E7B2D
:1001C00080932B018AE291E00E94630084B58368EA
:1001D00084BD077005BD17BC569A1F910F910895F5
:1001E0000F931F93FC01162F042F608341838AE233
:1001F00091E00E948100123009F1133020F4113097
:1002000009F050C006C0133061F1143009F04AC043
:1002100039C080912B01837F80932B018AE291E08A
:100220000E9463008091B00083688093B0000770E3
:100230000093B1001092B300239A34C080912B0137
:100240008D7E80932B018AE291E00E946300809171
:10025000B00083628093B00007700093B100539A9E
:1002600021C080912B018F7580932B018AE291E050
:100270000E94630084B5836284BD077005BD18BC0D
:10028000559A10C080912B018E7B80932B018AE2BE
:1002900091E00E94630084B5836884BD077005BD4A
:1002A00017BC569A1F910F910895FC01E081E2302E
:1002B00061F0E33020F4E13009F05DC009C0E330C3
:1002C00051F0E43009F057C009C041E054E008C0E3
:1002D00042E053E005C045E057E002C040E056E090
:1002E0006230C1F0643079F1613009F044C081E0DE
:1002F00090E09C0102C0220F331F5A95E2F720952F
:1003000002C0880F991F4A95E2F740912B01482BB4
:10031000242312C081E090E09C0102C0220F331F11
:100320004A95E2F7209540912B01242302C0880FC3
:10033000991F5A95E2F7282B20932B018AE291E02E
:100340000E946300089581E090E09C0102C0220FAA
:10035000331F4A95E2F702C0880F991F5A95E2F7BA
:10036000822B809520912B01282320932B018AE258
:1003700091E00E9463000895FC01E081E23069F0A1
:10038000E33018F4E13079F405C0E33049F0E430AB
:1003900051F408C06093B30008956093B4000895C9
:1003A00068BD089567BD0895EF92FF920F93DF93A4
:1003B000CF9300D0CDB7DEB79A8389837B01042F1A
:1003C0008AE291E00E948100E981FA81F182E08273
:1003D00002830130C1F480912B01817E80932B0137
:1003E0008AE291E00E94630083EA8093B000009368
:1003F000B1008FEF8093B4008093B300539A5B9A5F
:10040000239A2B9A16C00230A1F480912B018E7191
:1004100080932B018AE291E00E94630083EA84BD0D
:100420008FEF88BD87BD8AB180668AB98BB180663F
:100430008BB90F900F90CF91DF910F91FF90EF90BC
:100440000895EF92FF920F93DF93CF9300D0CDB733
:10045000DEB79A8389837B01042F8AE291E00E94B0
:100460008100E981FA81F182E08202830130C1F4E6
:1004700080912B01817E80932B018AE291E00E9482
:10048000630083EA8093B0000093B1008FEF809304
:10049000B4008093B300539A5B9A239A2B9A16C0A8
:1004A0000230A1F480912B018E7180932B018AE29E
:1004B00091E00E94630083EA84BD8FEF88BD87BD11
:1004C0008AB180668AB98BB180668BB90F900F9024
:1004D000CF91DF910F91FF90EF9008950F931F93AD
:1004E0008C01FC0180819181689F9001699F300D92
:1004F000789F300D112440E050E060E077E883E918
:1005000093E00E94DF07F8012383348345835683F9
:1005100017821086118612861F910F910895FC0193
:100520008281813051F480912B01817E80932B0157
:100530008AE291E00E9463000895823049F480913C
:100540002B018E7180932B018AE291E00E9463005F
:1005500008958F929F92AF92BF92CF92DF92EF92C7
:10056000FF920F931F93CF93DF93062FE42EFC018E
:100570009280F1E09F1669F4F090B3001091B400FE
:1005800064E0A62E52E0B52E48E0D42E30E1C32E12
:100590000FC082E0981611F000E062C1F7B418B500
:1005A00020E2A22EBB24B39490E8D92E80E4C82E7A
:1005B00080902B01E82DF0E04A2D50E0CB2DD0E0CB
:1005C0009E01242B352BC9018E239F23821793076D
:1005D00011F420E138C0AD2DB0E09D012C2B3D2B56
:1005E000C9018E239F238217930711F420E32BC0A8
:1005F0006C2D70E09B012A2B3B2BC9018E239F237E
:100600008217930711F420E51EC09B01242B352B84
:10061000C9018E239F238217930711F420E713C08B
:100620004E235F23452B11F020E00DC0CE23DF23A6
:10063000CD2B11F020E207C0AE23BF23AB2B11F46A
:1006400020E601C020E4E1E0EE1631F4822F82952D
:100650008F7080FF13C01EC0F2E0EF16C1F4822F2E
:1006600082958F7080FD0AC015C080599F4F282F3A
:100670002F7700E01FEFFF24FA94B3C0822F90E0A1
:10068000013011F48096F3CF805A9F4FF0CF83E072
:10069000E81631F4822F90E0013039F74096E7CF29
:1006A000E4E0EE1611F000E09CC0013009F04CC00F
:1006B000203110F4205F2F77FFEFFF1629F4822FEF
:1006C00082958370833039F01F3F39F4822F8295F1
:1006D0008370813011F4205E2F77203111F02035A6
:1006E000C9F41F3F11F480E103C0812F82958F7000
:1006F0008F5F61E10E949E07092F903111F41FEF77
:1007000003C0192F1295107FF12EF094003109F0DB
:1007100068C018C01F3F11F480E103C0812F82958B
:100720008F70805F61E10E949E07092F903111F464
:100730001FEF03C0192F1295107FF12EF0940023A4
:1007400009F04FC0205E4CC08FEFF81629F4822FBD
:1007500082958370813039F01F3F39F4822F829562
:100760008370833011F4205A2F77822F82958F70F7
:1007700080FD02C020592F77203111F02035C1F4BF
:100780001F3F11F480E103C0812F82958F70805F3D
:1007900061E10E949E07092F903111F41FEF03C001
:1007A000192F1295107FF12EF0940023D1F417C069
:1007B0001F3F11F480E103C0812F82958F708F5FFE
:1007C00061E10E949E07092F903111F41FEF03C0D1
:1007D000192F1295107FF12EF094003111F4205A48
:1007E0002F77E1E09E1629F4F092B3001093B40045
:1007F00005C0F2E09F1611F418BDF7BC4B2D4A2935
:100800003C2D3D29932F942B9095982190932B016B
:10081000822F82958F708330B1F0843028F481303C
:1008200071F0823070F409C0853081F0853060F05D
:10083000863079F0873081F40BC09A290BC0942B55
:1008400009C09B2907C0DB289D2904C0932B02C047
:10085000CA289C2990932B018AE291E00E946300B0
:10086000802FDF91CF911F910F91FF90EF90DF903C
:10087000CF90BF90AF909F908F90089508955F9212
:100880006F927F928F929F92AF92BF92CF92DF92A0
:10089000EF92FF920F931F93CF93DF93EC016B01C5
:1008A000542EA22EEB80FC800D811E8123E0A21627
:1008B000D1F416950795F794E794C801B70128EE8F
:1008C00033E040E050E00E94BD0739014A01C80111
:1008D000B70128EE33E040E050E00E94BD077B0105
:1008E0008C01BB2440C084E0A81639F7E4E01695DB
:1008F0000795F794E794EA95D1F774E0CC0CDD1CEA
:100900007A95E1F7DACF4A2D652DCE010E94A90232
:10091000B82EB301C4010E941C078F819885A98558
:10092000BA858E0D9F1DA01FB11F8F839887A98741
:10093000BA87885E9340A040B04090F061E070E0DC
:1009400080E090E00E941C078F819885A985BA8578
:10095000885E9340A040B0408F839887A987BA876C
:100960000894C108D108C114D10469F684E0A8161E
:1009700099F52DC044E0652DCE010E94A902B82E44
:10098000B301C4010E941C078F819885A985BA858F
:100990008E0D9F1DA01FB11F8F839887A987BA87CF
:1009A000885E9340A040B04090F061E070E080E04D
:1009B00090E00E941C078F819885A985BA85885E82
:1009C0009340A040B0408F839887A987BA87BB2007
:1009D00019F080E1B81671F6DF91CF911F910F9158
:1009E000FF90EF90DF90CF90BF90AF909F908F904F
:1009F0007F906F905F9008958CE291E063E041E01A
:100A00000E94F0008EE291E064E041E00E94F0007C
:100A100008952091340130913501C9014F97893AE9
:100A20009105A8F48CE291E061E00E9455018EE20C
:100A300091E061E00E9455018AEB91E060E071E095
:100A40000E94C90662E370E080E090E01DC02F3193
:100A500031054CF48CE291E062E00E9455018EE297
:100A600091E061E00BC0283C310584F08CE291E01C
:100A700061E00E9455018EE291E062E00E94550122
:100A80006BE470E080E090E00E941C0780911D0103
:100A90000E948007909335018093340108950F934D
:100AA0001F930AEB11E0C80140E855E260E070E0F6
:100AB0000E94C005C80161E171E00E94C9068CE294
:100AC00091E068EC0E94BC018EE291E068EC0E942B
:100AD000BC01809130010E94800790933301809384
:100AE000320180911D010E9480079093350180930F
:100AF00034011F910F9108950E9446070E944F05EF
:100B00000E940905FDCF1F920F920FB60F9211247C
:100B10002F933F934F935F936F937F938F939F9305
:100B2000AF93BF93EF93FF934091C600E091B6015E
:100B3000F091B701CF01019660E870E00E94AA072A
:100B40009C018091B8019091B9012817390739F0BB
:100B5000EA5CFE4F40833093B7012093B601FF91CA
:100B6000EF91BF91AF919F918F917F916F915F9125
:100B70004F913F912F910F900FBE0F901F9018959E
:100B8000AF92BF92CF92DF92EF92FF920F931F939B
:100B9000CF93DF936C017A018B01DC011496AD9049
:100BA000BC901597CB01BA0122E030E040E050E064
:100BB0000E94DF07205C3D4B404F5F4FCA01B901E7
:100BC000A80197010E94DF07C901DA010197A10975
:100BD000B109292F3A2F4B2F552747FD5A950196DA
:100BE000A11DB11DE5012883E601EE81FF81815041
:100BF0008083EA85FB85208141E050E0CA010E84B4
:100C000002C0880F991F0A94E2F7282B2083EA85F7
:100C1000FB852081CA010F8402C0880F991F0A94A6
:100C2000E2F7282B2083EA85FB858081088802C0B3
:100C3000440F551F0A94E2F7842B8083DF91CF91F4
:100C40001F910F91FF90EF90DF90CF90BF90AF90EA
:100C50000895FC01A085B18521898C9190E0022E38
:100C600002C0959587950A94E2F780FFF6CF048439
:100C7000F585E02D6083089584E291E09093BB01B7
:100C80008093BA0186E391E09093BD018093BC010B
:100C900085EC90E09093BF018093BE0184EC90E0DE
:100CA0009093C1018093C00180EC90E09093C301C8
:100CB0008093C20181EC90E09093C5018093C401C0
:100CC00086EC90E09093C7018093C60184E0809306
:100CD000C80183E08093C90187E08093CA0185E061
:100CE0008093CB0108950F931F93CF93DF938C01D3
:100CF000EB0109C02196D801ED91FC910190F081A2
:100D0000E02DC801099568816623A1F7DF91CF9195
:100D10001F910F910895EF92FF920F931F93CF931E
:100D2000DF938C017B01EA010CC0D7016D917D013D
:100D3000D801ED91FC910190F081E02DC801099559
:100D40002197209791F7DF91CF911F910F91FF90FD
:100D5000EF900895DC01ED91FC910280F381E02D8C
:100D6000099508950F931F938C01DC01ED91FC917F
:100D70000190F081E02D6DE00995D801ED91FC9195
:100D80000190F081E02DC8016AE009951F910F9153
:100D900008950F931F938C010E94AA06C8010E9418
:100DA000B2061F910F9108951F920F920FB60F92E6
:100DB00011242F933F938F939F93AF93BF93809171
:100DC000D0019091D101A091D201B091D301309185
:100DD000D4010196A11DB11D232F2D5F2D3720F0C9
:100DE0002D570196A11DB11D2093D4018093D001F0
:100DF0009093D101A093D201B093D3018091CC0103
:100E00009091CD01A091CE01B091CF010196A11D8D
:100E1000B11D8093CC019093CD01A093CE01B093EE
:100E2000CF01BF91AF919F918F913F912F910F90E3
:100E30000FBE0F901F901895EF92FF920F931F9384
:100E40007B018C018FB7F8944091D0015091D10172
:100E50006091D2017091D3018FBF2FB7F894809128
:100E6000D0019091D101A091D201B091D3012FBFB7
:100E7000841B950BA60BB70BE816F9060A071B0790
:100E800060F71F910F91FF90EF900895789484B5CB
:100E9000826084BD84B5816084BD85B5826085BD76
:100EA00085B5816085BDEEE6F0E08081816080835C
:100EB000E1E8F0E0808182608083808181608083CE
:100EC000E0E8F0E0808181608083E1EBF0E0808108
:100ED00084608083E0EBF0E0808181608083EAE7DA
:100EE000F0E0808184608083808182608083808163
:100EF000816080838081806880831092C100089522
:100F0000877090911F019295990F990F907C982B63
:100F100090937C0080917A00806480937A00809125
:100F20007A0086FDFCCF2091780040917900942FC3
:100F300080E030E0282B392BC9010895991B79E016
:100F400004C0991F961708F0961B881F7A95C9F759
:100F50008095089597FB092E07260AD077FD04D0C7
:100F600049D006D000201AF4709561957F4F0895FE
:100F7000F6F7909581959F4F0895A1E21A2EAA1B2E
:100F8000BB1BFD010DC0AA1FBB1FEE1FFF1FA21739
:100F9000B307E407F50720F0A21BB30BE40BF50B36
:100FA000661F771F881F991F1A9469F760957095BF
:100FB000809590959B01AC01BD01CF01089597FBF1
:100FC000092E05260ED057FD04D0D7DF0AD0001C0D
:100FD00038F450954095309521953F4F4F4F5F4FD6
:100FE0000895F6F790958095709561957F4F8F4F96
:100FF0009F4F0895AA1BBB1B51E107C0AA1FBB1F2F
:10100000A617B70710F0A61BB70B881F991F5A9594
:10101000A9F780959095BC01CD010895EE0FFF1FB3
:0C1020000590F491E02D0994F894FFCFA6
:10102C0044726976696E6720466F727761726421CB
:10103C00004D6F746F72207465737421000500018C
:0A104C0000000000290673068B0661
:00000001FF
